:020000040800F2
:1000000060070020190D00087D0300087F03000829
:1000100083030008870300088B030008000000002A
:100020000000000000000000000000008F03000836
:1000300091030008000000009303000895030008E6
:10004000330D0008330D0008330D0008330D000890
:10005000330D0008330D0008330D0008330D000880
:10006000330D0008330D0008330D0008330D000870
:10007000330D0008330D0008330D0008330D000860
:10008000330D0008330D0008330D0008330D000850
:10009000330D0008330D0008330D0008330D000840
:1000A000330D0008330D0008330D0008330D000830
:1000B000330D0008330D0008330D0008330D000820
:1000C000330D0008330D0008330D0008330D000810
:1000D000330D00088F0C0008330D0008330D0008A5
:1000E000330D0008330D0008330D0008330D0008F0
:1000F000330D0008330D0008330D0008330D0008E0
:10010000330D0008330D0008330D0008330D0008CF
:10011000330D0008330D0008330D0008330D0008BF
:10012000330D0008330D0008330D0008330D0008AF
:1001300000F002F800F03FF80AA090E8000C8244BA
:100140008344AAF10107DA4501D100F034F8AFF297
:10015000090EBAE80F0013F0010F18BFFB1A43F0A5
:1001600001031847BC250000DC250000103A24BF1D
:1001700078C878C1FAD8520724BF30C830C144BF0C
:1001800004680C607047000000230024002500264E
:10019000103A28BF78C1FBD8520728BF30C148BFEA
:1001A0000B607047642901F00B84002070471FB575
:1001B0001FBD10B510BD01F0CBFC1146FFF7F7FFD6
:1001C00000F008F801F0E9FC03B4FFF7F2FF03BC0C
:1001D00000F002FD002600F095FC4FF4A06001F055
:1001E0003FFB4FF4165000F006FD00F0C5F900F09B
:1001F000EBF900F05BFB0021084600F063FA3D4894
:1002000000F094FA74E03C48008800F400400028B4
:1002100056D039480088C0F30D0738A001F090FB94
:10022000002513E03A48405D3A4908803848445D6B
:10023000214639A001F084FB00BF3648001F00882A
:1002400000F040000028F8D0681CC5B2BD42E9DBD0
:10025000312C13D13648006808B9012000E0002095
:100260003349086000221146012000F0B9FA4FF42A
:10027000FA720021084600F0B3FA1DE0322C0CD1CE
:100280004FF47A620021012000F0AAFA4FF4FA72CA
:100290000021084600F0A4FA0EE0332C0CD12548CA
:1002A000006808B9012000E000202249086000220F
:1002B0001146104600F094FA00200F49088017E01C
:1002C000701C86B241F2883096FBF0F100FB1160A1
:1002D00010B919A001F034FBC82096FBF0F100FB27
:1002E000116010B91EA001F02BFB0A2000F047FCA2
:1002F00089E700000000A543200000200D0AC4FA91
:10030000B7A2CBCDB5C4CFFBCFA2CEAA3A0D0A007F
:1003100038000020043801400D0A20726573BDD3F7
:10032000CADCCAFDBEDDCEAA3A2025640D0A000053
:10033000A0012142888122420D0A414C49454E5478
:10034000454B204D696E6953544D3332BFAAB7A255
:10035000B0E520B4AEBFDACAB5D1E90D0A0000009D
:10036000C7EBCAE4C8EBCAFDBEDD2CD2D4BBD8B300
:10037000B5BCFCBDE1CAF80D0A000000704700BF23
:10038000FEE700BFFEE700BFFEE700BFFEE77047E5
:1003900070477047704700000CB500200190009036
:1003A0006C48006840F480306A49086000BF6948C2
:1003B000006800F4003000900198401C0190009803
:1003C00018B90198B0F5A06FF1D16248006800F447
:1003D000003010B10120009001E000200090009852
:1003E000012843D15C48006840F010005A49086079
:1003F0000846006820F0030008600846006840F0E6
:100400000200086053484068524948600846406806
:1004100048600846406840F480604860084640688C
:1004200020F47C1048600846406840F4E8104860BA
:100430000846006840F08070086000BF45480068CA
:1004400000F000700028F9D04248406820F0030016
:10045000404948600846406840F00200486000BFDC
:100460003C48406800F00C000828F9D10CBD10B5DC
:10047000FFF792FF10BD10B53648006840F001004C
:1004800034490860084640683449084031494860AA
:1004900008460068324908402E490860084600684E
:1004A00020F4802008600846406820F4FE00486080
:1004B0004FF41F008860FFF7DAFF4FF00060294912
:1004C000086010BD10B5002100200022214B5B68A0
:1004D00003F00C0121B1042906D0082928D107E036
:1004E000214B224C236027E01F4B204C236023E04C
:1004F000184B5B6803F47010164B5B6803F4803292
:10050000022303EB904022B9194B4343174C23605D
:100510000DE0104B5B6803F4003323B1144B4343ED
:10052000124C236003E0104B4343104C236003E064
:100530000D4B0E4C236000BF00BF064B5B68C3F33E
:1005400003130C4CE15C094B1B68CB40074C236048
:1005500010BD000000100240002002400000FFF823
:10056000FFFFF6FE08ED00E000127A000000002018
:1005700000093D000400002008B50121242000F0FE
:1005800007FF4FF48070ADF8000010208DF80300D5
:1005900003208DF802006946094800F03DFC4FF445
:1005A0008071074800F0E5FC0420ADF800006946C2
:1005B000044800F031FC0421024800F0DAFC08BDD8
:1005C000000801400014014008B50121142000F08A
:1005D000DFFE0121374800F0F0FC4FF40040ADF899
:1005E000000048208DF803006946334800F014FCF1
:1005F0002020ADF8000048208DF8030069462F4800
:1006000000F00AFC0120ADF8000028208DF803005E
:100610006946294800F000FC08BD10B5044614B135
:100620000120274908702648007868B32021234814
:1006300000F085FC58B14FF400411F4800F07FFCEA
:1006400028B101211C4800F07AFC01281CD10A20A5
:1006500000F095FA00201A4908702021174800F090
:100660006EFC08B9012010BD4FF40041124800F0A3
:1006700066FC08B90220F6E701210F4800F05FFC94
:10068000012815D10320EEE720210C4800F057FC8B
:1006900001280DD1C103084800F051FC012807D101
:1006A0000121054800F04BFC10B9012004490870F5
:1006B0000020D8E70002300000080140001001408F
:1006C0001400002070B505460C4600F009F98020A2
:1006D00000F0B4F900F045F9284600F0AFF900F059
:1006E00040F9204600F0AAF900F03BF900F01AF9B1
:1006F00070BD70B5044600F0F3F8802000F09EF95C
:1007000000F02FF9204600F099F900F02AF900F0E6
:10071000E7F8812000F092F900F023F9002000F0C2
:10072000BAF9054600F0FEF8284670BD2DE9FC5FD9
:100730008346584601F07EFF8046564A564B01F0EC
:100740004FFD064601F0A4FA83460024534D0022D3
:10075000534B2046294601F081FB04460D4658467E
:1007600001F068FF064632460B462046294601F056
:1007700075FB04460D4600224A4B2046294601F0EF
:100780006FFE04460D460022474B2046294601F0E5
:10079000B1FA064601F00EFA804601F0B7FCC0B28D
:1007A00001900020FFF7A5FF82460AF07F0040F08D
:1007B0001000009000200099FFF784FFFE200199AF
:1007C000FFF780FF51460020FFF77CFF022000F07A
:1007D000D6F94AF0A1010020FFF774FFBDE8FC9FA5
:1007E00070B504460D461646E9B2A200921DD0B27D
:1007F000FFF768FFA100C91DC8B2C5F30721FFF7C5
:1008000061FFF1B2A2000832D0B2FFF75BFFA10096
:100810000931C8B2C6F30721FFF754FF70BD10B508
:1008200000244FF4487409E0224600210120FFF71C
:10083000D7FF032000F0A3F9601C84B240F2566099
:100840008442F1DD10BD10B5002440F2A32409E07C
:10085000224600210220FFF7C3FF032000F08FF99A
:10086000601C84B240F698008442F1DD10BD10B5E2
:10087000002440F2A32409E0224600210F20FFF7C4
:10088000AFFF032000F07BF9601C84B2B4F52F6F3A
:10089000F2DD10BD713D0AD7A370ED3F84D77741DB
:1008A0000000B0400000F03F0000E03F08B501212B
:1008B000102000F06DFD4FF4C050ADF80000102086
:1008C0008DF8030003208DF8020069468A4800F085
:1008D000A3FA0120894908608949C1F8AC0108BD23
:1008E00010B58548406820F4704083494860084648
:1008F000406840F44050486001208049091F08606A
:100900007F49C1F8B001042000F015F900207B49AF
:10091000091F0860042000F00EF900207849C1F892
:10092000B00110BD10B57448406820F470407249A1
:1009300048600846406840F44050486000206F49D5
:1009400008606F49C1F8AC01042000F0F4F8012000
:100950006A4908606A49C1F8AC01042000F0EBF86C
:1009600010BD10B500246448406820F4704062490E
:1009700048600846406840F40040486001205F49F4
:10098000091F086000F0D7F801205D49C1F8B001E7
:1009900000F0D1F807E0601CC4B2FA2C03DDFFF7C9
:1009A000C1FF012010BD5548843800680028F2D1ED
:1009B0005249086000BFF5E710B500204F490860B4
:1009C0004D48406820F470404B49486008464068F4
:1009D00040F44050486000204949C1F8AC01022071
:1009E00000F0A9F8012045490860022000F0A3F8B2
:1009F00000204349C1F8B00110BD10B500203F49A7
:100A000008603D48406820F470403B494860084613
:100A1000406840F44050486001203949C1F8AC01B9
:100A2000022000F088F8012034490860022000F01C
:100A300082F800203249C1F8B00110BD70B50446FB
:100A40002D48406820F470402B49486008464068B3
:100A500040F440504860002028490860002517E015
:100A6000E0092649091F08606006040E022000F014
:100A700062F801202249C1F8B001022000F05BF8C1
:100A800000201E490860022000F055F8681CC5B21D
:100A9000082DE5DB70BD70B505460024164840689A
:100AA00020F47040144948600846406840F4004013
:100AB0004860002616E0002010490860022000F07F
:100AC0003AF801200E49C1F8B0016006040E0B4847
:100AD0008438006808B1601CC4B2012000F02BF813
:100AE000701CC6B2082EE6DB15B9FFF786FF01E0E1
:100AF000FFF762FF204670BD00100140B0012242A6
:100B00000000224210B56FF0040000F0F8FE2E48FD
:100B100000682E49B0FBF1F02D49087008460078B6
:100B200000EB4001C1EBC0104FF6FF7101EAC000BD
:100B30002849088010BD0146254A12784A434FF0E3
:100B4000E0235A6100229A611A46126942F00102BA
:100B50001A6100BF4FF0E022106900F001021AB1E3
:100B600000F48032002AF5D04FF0E022126922F022
:100B700001024FF0E0231A6100229A61704701469A
:100B8000144A12884A434FF0E0235A6100229A61C6
:100B90001A46126942F001021A6100BF4FF0E022CA
:100BA000106900F001021AB100F48032002AF5D079
:100BB0004FF0E022126922F001024FF0E0231A61A7
:100BC00000229A61704700000000002000127A00A5
:100BD0001600002018000020014600BF704700BF2B
:100BE000494A128802F04002002AF9D0C2B2464BAC
:100BF0001B1D1A80704710B586B00446012144F2CF
:100C0000040000F0C5FB4FF40070ADF814000320A1
:100C10008DF8160018208DF8170005A93B4800F044
:100C2000FBF84FF48060ADF8140004208DF8170035
:100C300005A9364800F0F0F825208DF800000320C3
:100C40008DF801008DF8020001208DF80300684640
:100C500000F00BFE01940020ADF80800ADF80A008A
:100C6000ADF80C00ADF810000C20ADF80E0001A995
:100C7000254800F034FC012240F22551224800F0C2
:100C8000C6FC0121204800F0B6FC06B010BD10B52E
:100C900040F225511C4800F09FFD10B31A4800F0A7
:100CA0001BFDC4B21A48008800F40040C8B91848B7
:100CB000008800F4804060B10A2C03D00020144961
:100CC000088020E01248008840F400401049088065
:100CD00019E00D2C06D10E48008840F480400C49E4
:100CE000088010E00A480088C0F30D0009490C5440
:100CF00007480088401C0649088008460088C72825
:100D000001DD0020088010BD0038014000080140CE
:100D1000200000203800002009488047094800478B
:100D2000FEE7FEE7FEE7FEE7FEE7FEE7FEE7FEE79B
:100D3000FEE7FEE704480549054A064B70470000F8
:100D400077040008310100086001002060070020DE
:100D5000600300206003002010B50446CC488442A4
:100D600008D10121042000F02DFB0021042000F017
:100D700029FB46E0C748844208D10121082000F041
:100D800021FB0021082000F01DFB3AE0C24884420C
:100D900008D10121102000F015FB0021102000F0E7
:100DA00011FB2EE0BD48844208D10121202000F033
:100DB00009FB0021202000F005FB22E0B848844216
:100DC00008D10121402000F0FDFA0021402000F070
:100DD000F9FA16E0B348844208D10121802000F0DE
:100DE000F1FA0021802000F0EDFA0AE0AE488442DA
:100DF00007D10121801500F0E5FA0021A01500F0CF
:100E0000E1FA10BD10B50121084600F0DBFA00211F
:100E1000012000F0D7FA10BD2DE9F041024600256F
:100E20000026002000230024002791F803C00CF0C6
:100E30000F0591F803C00CF0100CBCF1000F03D0AB
:100E400091F802C04CEA050591F800C0BCF1000F12
:100E500031D0146800202BE04FF0010C0CFA00F3A5
:100E6000B1F800C00CEA03069E4220D183004FF087
:100E70000F0C0CFA03F7BC4305FA03FC4CEA04041C
:100E800091F803C0BCF1280F06D14FF0010C0CFA09
:100E900000FCC2F814C00AE091F803C0BCF1480F8E
:100EA00005D14FF0010C0CFA00FCC2F810C0401C38
:100EB0000828D1D31460B1F800C0BCF1FF0F34DDB5
:100EC000546800202EE000F1080C4FF0010808FAE9
:100ED0000CF3B1F800C00CEA03069E4221D1830056
:100EE0004FF00F0C0CFA03F7BC4305FA03FC4CEA75
:100EF000040491F803C0BCF1280F05D100F1080CDF
:100F000008FA0CF8C2F8148091F803C0BCF1480F3D
:100F100007D100F1080C4FF0010808FA0CF8C2F8EC
:100F20001080401C0828CED35460BDE8F0814FF6F5
:100F3000FF710180022181700421C1707047024657
:100F4000002093680B400BB1012000E000207047A7
:100F50000146886880B2704702460020D3680B4083
:100F60000BB1012000E0002070470146C86880B244
:100F7000704701617047416170470AB1016100E04B
:100F800041617047C16070474FF480320A4382610B
:100F90008161826182698269704702460020434B09
:100FA00018684FF68073184040EA021008433F4B20
:100FB000186070473E49C8617047F0B50A46002383
:100FC00000240021002500F00046B6F1004F02D1B8
:100FD000364EF16901E0354E7168C0F3034583B2C6
:100FE00000F44016B6F5401F08D121F070612F4E75
:100FF000766826F070662D4F7E6012E000F4801651
:10100000B6F5801F06D1032606FA05F4A14341F088
:10101000706106E0460D360103FA06F6B14341F071
:10102000706122B1460D360103FA06F6314300F035
:101030000046B6F1004F02D11C4EF16101E01B4E9B
:101040007160F0BD30B500228B071C0F0F2303FA2F
:1010500004F2164B08338C1053F824309343134C8E
:1010600008348D1044F8253023468C1053F8243072
:101070008C07240F00FA04F423430C4C08348D1021
:1010800044F8253030BD0A49DC3108607047000063
:1010900000080140000C0140001001400014014014
:1010A00000180140001C01400020014000000140E8
:1010B00000002042DF48006840F00100DD49086080
:1010C00008464068DC490840DA494860084600683C
:1010D000DA490840D74908600846006820F48020B3
:1010E00008600846406820F4FE0048604FF41F0086
:1010F00088607047CF49096821F48031CD4A11607A
:101100001146096821F480211160B0F5803F03D0B9
:10111000B0F5802F0ED106E0C649096841F4803150
:10112000C44A116007E0C349096841F4A021C14ADB
:10113000116000E000BF00BF704710B501460022FB
:10114000002300204A11012A02D1BA4C236806E08C
:10115000022A02D1B74C236A01E0B64C636A01F05F
:101160001F02012494401C400CB1012000E000202B
:1011700010BD38B5002000900024002500BF3120AC
:10118000FFF7DBFF05460098401C00900098B0F583
:10119000A06F01D0002DF2D03120FFF7CEFF08B1B3
:1011A000012400E00024204638BD01460020A14A69
:1011B000106820F0F80040EAC10010607047A049B4
:1011C00008607047024600209A4B586820F47C1053
:1011D00042EA01031843974B5860704798490866E4
:1011E000704701460020934A506820F003000843EE
:1011F000506070478F48406800F00C00704701460F
:1012000000208C4A506820F0F0000843506070477E
:1012100001460020874A506820F4E060084350608F
:10122000704701460020834A506820F4605040EA2D
:10123000C1005060704729B17E4A527A02437D4B0B
:101240005A7204E07B4A527A82437A4B5A72704750
:101250007B49D8310860704701460020754A5068C4
:1012600020F440400843506070470021714A20320A
:101270001170704A82F82010012802D004280AD187
:1012800004E001216B4A2032117005E00521694A12
:101290002032117000E000BF00BF7047694908604C
:1012A00070476449096A0143624A1162704765499F
:1012B00044390860704730B5002100220024002323
:1012C0005C4D6D6805F00C0121B1042905D0082999
:1012D00023D105E05C4D056022E05B4D05601FE019
:1012E000544D6D6805F47012524D6D6805F48034EC
:1012F000022505EB92421CB9544D554305600BE0A5
:101300004C4D6D6805F400351DB1504D55430560D9
:1013100002E04D4D5543056002E04B4D056000BFB6
:1013200000BF444D6D6805F0F0010909484D6B5C44
:101330000568DD4045603F4D6D6805F4E061090AD0
:10134000434D6B5C4568DD4085603A4D6D6805F442
:101350006051C90A3E4D6B5C4568DD40C560354D46
:101360006D6805F44041890B3A4D6B5CC568B5FB6F
:10137000F3F5056130BD29B12E4A526902432D4B68
:101380005A6104E02B4A526982432A4B5A617047E2
:1013900029B1284A92690243264B9A6104E0254A02
:1013A00092698243234B9A61704729B1214AD269DD
:1013B0000243204BDA6104E01E4AD26982431D4B8E
:1013C000DA61704729B11B4AD2680243194BDA60CF
:1013D00004E0184AD2688243164BDA60704729B19C
:1013E000144A12690243134B1A6104E0114A12694C
:1013F0008243104B1A6170471249403908607047A8
:101400000F49C86470470B49C87170470948406A62
:1014100040F0807007494862704701460020054A45
:1014200092680A400AB1012000E00020704701499B
:1014300088727047001002400000FFF8FFFFF6FEC0
:10144000000042428004424200127A0000093D003E
:10145000220000203200002010B50446FB488442E0
:1014600009D101218803FFF7ADFF00214FF480402F
:10147000FFF7A8FF32E0F648844209D10121480471
:10148000FFF7ADFF00214FF40030FFF7A8FF25E084
:10149000F048844209D101218804FFF7A0FF002110
:1014A0004FF48020FFF79BFF18E0EB48844209D1FE
:1014B0000121C804FFF793FF00214FF40020FFF73C
:1014C0008EFF0BE0E548844208D101210805FFF7B3
:1014D00086FF00214FF48010FFF781FF10BD2DE93A
:1014E000F04786B005460E460024A24600BFA1463E
:1014F0000027B08900B100BF2F462C8A4CF6FF7040
:101500000440F08804432C82AC894EF6F31004406A
:10151000B08831890843718908430443AC81AC8A9F
:101520004FF6FF400440B0890443AC8201A8FFF7A6
:10153000C2FEC648874202D1DDF810A001E0DDF806
:101540000CA0A88900F4004040B10AEBCA0000EBEF
:101550000A1031684900B0FBF1F807E00AEBCA0055
:1015600000EB0A1031688900B0FBF1F86420B8FB89
:10157000F0F004012009642101FB1089A88900F41E
:10158000004040B1322000EBC900B0FBF1F000F0A8
:101590000700044308E0322000EB09106421B0FB8F
:1015A000F1F000F00F0004432C8106B0BDE8F08795
:1015B0004FF41651016000218180C18001810C210E
:1015C000418100218181704710B502460020108AB8
:1015D0004FF2FF0318400B884C8823438C88234329
:1015E000CC8823431843108210BD00210180418024
:1015F0008180C180704721B1828942F4005282818A
:1016000004E082894DF6FF731A4082817047F0B57D
:101610000346002400260025002040F66A17B94240
:1016200000D100BF1846C1F3421401F01F06012784
:1016300007FA06F5012C01D10C3004E0022C01D18F
:10164000103000E014301AB107682F43076002E041
:101650000768AF430760F0BD1AB1838A0B438382EA
:1016600002E0838A8B4383827047028A4FF6F073CD
:101670001A400282028A0A430282704782894FF22C
:10168000FF731A40828182890A438281704721B1A7
:10169000828942F00202828104E082894FF6FD7362
:1016A0001A4082817047028A4FF6DF731A40028225
:1016B000028A0A430282704721B1028A42F48042C0
:1016C000028204E0028A4BF6FF731A4002827047DE
:1016D000C1F308028280704701468888C0F3080081
:1016E0007047818941F0010181817047028BD2B23C
:1016F0000283028B42EA012202837047028B02F4CA
:101700007F420283028B0A430283704721B1828A9F
:1017100042F02002828204E0828A4FF6DF731A4090
:101720008282704721B1828A42F01002828204E0F4
:10173000828A4FF6EF731A408282704721B1828A03
:1017400042F00802828204E0828A4FF6F7731A4060
:101750008282704721B1828942F40042828103E093
:101760008289C2F30E028281704721B1828A42F4DB
:101770000062828204E0828A4FF2FF731A40828202
:101780007047828A4FF6FB731A408282828A0A432C
:101790008282704721B1828A42F00202828204E092
:1017A000828A4FF6FD731A408282704702460020FB
:1017B000B1F5007F00D100BF13880B400BB10120B1
:1017C00000E00020704701F40072B2F5007F00D104
:1017D00000BFCA430280704770B502460024002350
:1017E0000025002040F66A16B14200D100BFC1F3C7
:1017F000421501F01F03012606FA03F3012D02D161
:101800009689334006E0022D02D1168A334001E06A
:10181000968A33400C12012606FA04F416883440E6
:1018200013B10CB1012000E0002070BD10B5002202
:10183000002340F66A14A14200D100BF0A1201241D
:101840009440A3B2DC43048010BD00000038014086
:101850000044004000480040004C00400050004060
:1018600031490143314A1160704770B500210023AE
:101870000F22C47804B32D4C246804F4E064C4F54A
:10188000E064210AC1F10403CA40447804FA03F178
:101890008478144021430901254C0678A155047829
:1018A00004F01F050124AC4005786D11AD0005F171
:1018B000E025C5F8004109E0047804F01F05012483
:1018C000AC401C4D0678761145F8264070BD1A4A8A
:1018D0000A400243154B1B1F1A60704739B1134A67
:1018E000121D12680243114B1B1D1A6006E00F4ABD
:1018F000121D126882430D4B1B1D1A60704704288D
:1019000008D14FF0E021096941F004014FF0E022D5
:10191000116107E04FF0E021096921F004014FF067
:10192000E0221161704700000000FA050CED00E0B4
:1019300000E400E080E100E080FFFF1F704700004E
:101940000FB4044910B503AA029800F0D3F810BCF4
:101950005DF814FB1C0000202DE9F0410E46044602
:10196000002020622046E168884730B3252805D052
:10197000D4E901219047206A401CF2E7E168204643
:1019800000278847050018D0A5F14100192802D882
:1019900020354FF400673246294620462760FEF77F
:1019A00001FC40B1012804D0F61D26F007060836D8
:1019B000D8E7361DD6E72846DAE7206ABDE8F08189
:1019C0002DE9F0410646002410687529314616A518
:1019D00010D0AFF30080002802DA404213A507E0E0
:1019E00031688A0701D512A502E0490704D511A57F
:1019F000012401E0AFF3008000210A2206F1240750
:101A000009E0B0FBF2FCB0FBF2F302FB1C0030304B
:101A100078541846491C0028F3D123462A463046FC
:101A2000BDE8F04100F00CB8000000002D000000FF
:101A30002B0000002000000070477047704770477F
:101A40002DE9F0470D4699469246044600F12408D8
:101A50000168880604D5E06921F01001216000E0EA
:101A60000120A84201DD471B00E00027A1697A1987
:101A700002EB0900081AA0612078C00602D42046B3
:101A8000AFF30080002608E0D4E901211AF806002F
:101A90009047206A401C761C20624E45F4DB20787B
:101AA000C0060AD52046AFF3008006E0D4E9012144
:101AB00030209047206A401C2062381EA7F10107A1
:101AC000F4DC07E0D4E9012118F805009047206A0A
:101AD000401C2062281EA5F10105F3DC2046AFF36F
:101AE00000802078000602D50220BDE8F0870120A2
:101AF000FBE70000074B70B50D467B4400F011F882
:101B00000446284600F020F810B14FF0FF3070BDB9
:101B1000204670BDE1F0FFFF01694A1C02610878B0
:101B2000704700B58FB0CDE901310021059105491D
:101B30007944CDE9031011466846FFF70DFF0FB059
:101B400000BD0000E5FFFFFF007B00F08000704754
:101B5000754600F02BF8AE4605006946534620F066
:101B60000700854618B020B5FFF7E4F8BDE820402F
:101B70004FF000064FF000074FF000084FF0000B49
:101B800021F00701AC46ACE8C009ACE8C009ACE8FC
:101B9000C009ACE8C0098D46704710B50446AFF3E4
:101BA00000802046BDE81040FEF70EBB004870479D
:101BB000000100202DE9F041C1F30A52A2F2FF36E4
:101BC0002F4A304B0D460446142E2FDA002E12DA1F
:101BD00000F090F80022134600F000FC4CD2002DDB
:101BE000A4BF0024254647DA25F00040204318BF53
:101BF000254D41D018E0DFF894C02CFA06F705EA2D
:101C0000070C5CEA040C08BFBDE8F08100F072F834
:101C10000022134600F0E2FB2ED2002D03DA4FF42F
:101C20008010F0400544BD43002425E0332EC8BF9A
:101C3000BDE8F081A6F1140C4FF0FF3727FA0CF73E
:101C40003C4208BFBDE8F08100F0FEFB00221346D5
:101C500000F0C4FB10D2002D0DDA142E08BF6D1C4D
:101C600009D0C6F13400012101FA00F02044A0425D
:101C700038BF6D1C0446BC4329462046BDE8F081B0
:101C80009C7500883CE4377E0000F0BFFFFF0F002A
:101C900021F00042A2F16052B2F5801F01F0004332
:101CA00028BFD2F17F6C0BD95FEA001C43EAC20265
:101CB00042EB507018BF704728BF20F001007047FA
:101CC000B2F5801FBCBF184670474FEA410C1CF5A7
:101CD000001F02D2084600F01EBD70B500F02AFBBE
:101CE00000000089FFF7F6BF4FF00040A0F580002C
:101CF0007047000010B591EA030F48BF83F000431E
:101D000000F1B683841A71EB030C05D2121943EB70
:101D10000C03001B61EB0C01DFF824E14FEA1154C6
:101D2000A4EB135C1EEA430F18BF9EEA445F73D016
:101D300023EA0E03DCF1200E21EA045143F4801360
:101D400032D322FA0CFE10EB0E0023FA0CFE41EB0C
:101D50000E01CCF1200E03FA0EFE10EB0E0051F135
:101D60000001B1F5801FCCF1200E32D201EB0451FD
:101D700012FA0EF2BDE8104058BF7047401C38BF41
:101D80005FEA420218BF7047002814BF20F001002C
:101D900041F100014FEA410313F5001F38BF7047BE
:101DA000A1F1C04100F014BB012A43EB0302ACF1E6
:101DB000200CDCF11F0E32BF4FF0000E23FA0CF3A3
:101DC00010EB030041EB0451B4EB115FD0D0A1EB59
:101DD000045101F5801149085FEA300001EB04511C
:101DE0000ED350F1000038BF12FA0EFE08D1BDE844
:101DF0001040C9E7401C38BF5FEA4202CAD1C3E7BE
:101E0000BDE810404FEA410313F5001F38BF70478B
:101E1000A1F1C04100F0DCBA9EEA445F08D011EAAB
:101E20005E0FBDE8104004BF01F000410020704784
:101E3000BDE8104070B500F07DFA00BF64FBBE3E07
:101E40000000E0FF491058BFC1F140415B1058BF8E
:101E5000C3F140438B42EFF3008070472DE9C0414E
:101E600030B4DFF8A0C23CEA111418BF3CEA1314E6
:101E700000F0EC8081EA03051CEA111444EAD574F1
:101E800018BF1CEA131500F0C780A4EB05044FF03F
:101E9000004545EAC12145EAC32341EA505143EADE
:101EA000525304F17F74994204F500344FEAC02084
:101EB0004FEAC22208BF904200F09C804FEA1365AF
:101EC0000FF24016765D4FEA134506FB05F7C7F1A2
:101ED000807706FB07F74FEAD737A7FB0368764200
:101EE000C8F58038A7FB06CE38BFA8F1010807FB6C
:101EF00008E64FF0000EA6FB028CE6FB03CEDCF1F9
:101F0000000CCEF1004E38BFAEF1010EA6FB0C580E
:101F10004FF000074FF00005E6FB0E87A1FB08C657
:101F2000A0FB07CE16EB0E0645F10005E1FB0765A9
:101F300015F1E04E7EBFA4F580345FEA46066D41A0
:101F400016F1800745F100054FEA17274FEA0666AC
:101F500047EA0567A6F1DE46B6F1805F4FEA152530
:101F60001FD9384624F0010C05EBC471BCF1FE6F9B
:101F700001EB0C1102D8F0BCBDE8008124425CBF2B
:101F800001F5801E9EEAC47F02D4F0BCBDE800814A
:101F9000244238D4F0BCA1F1C041BDE8004100F0BA
:101FA00017BA4FEAD22242EA43524FEAD323A7FBA1
:101FB00002864FEAD02040EA415007FB03661EEA42
:101FC0000E0F4FEAD12105FB026658BFA6EB005663
:101FD000B6EB00564FEA520E4EEAC37E18EB0E0ED9
:101FE00056EB530EBDD518EB02085E417F1C55F130
:101FF0000005B6E74FF480154FF000074FF00006DC
:102000004FF00008ADE7F0BC4FF0000001F1C04117
:1020100001F00041BDE8008111EA0C1F0CEA131524
:1020200000D00CE013EA0C1F00F025804FF00000F8
:10203000F0BC81EA030101F00041BDE80081F0BC81
:10204000BDE8004181EA030100F0C2B9F0BCBDE87F
:10205000004170B500F06EF9097EFC3E00F007B853
:1020600081EA03014FF0000001F00041704781EA6E
:10207000030100F0ADB9F0BCBDE800414FF0000035
:1020800021497047FFFDFBF9F7F5F4F2F0EEEDEBB7
:10209000E9E8E6E4E3E1E0DEDDDBDAD8D7D5D4D366
:1020A000D1D0CFCDCCCBCAC8C7C6C5C4C2C1C0BFB2
:1020B000BEBDBCBBBAB9B8B7B6B5B4B3B2B1B0AFB8
:1020C000AEADACABAAA9A8A8A7A6A5A4A3A3A2A19C
:1020D000A09F9F9E9D9C9C9B9A9999989797969557
:1020E00095949393929191908F8F8E8E8D8C8C8BF3
:1020F0008B8A89898888878786858584848383827B
:10210000828181800000FF070000F87F4FEA1153B1
:10211000A3F58063D3F11E03A8BFD3F1200C08DB25
:102120004FF0004242EAC12252EA505232FA03F022
:10213000704709420BD4102BC4BF0020704703F531
:10214000787CBCF1FF3F05D04FF0FF3070474FF077
:102150000000704770B500F0EDF800BF4992248090
:1021600000207047F0E7000051EA030C17D41CF57B
:10217000801F58BFBCF5801F00F10680994218BF30
:10218000704708BF9042704707D711F5801F58BFAE
:1021900013F5801F19D499427047894270471CF586
:1021A000801F08D5BCF5801FF7D58B4218BF70473C
:1021B00008BF824270474FF4001C1CEB410F38BF30
:1021C0001CEB430F01D28B42704770B500F0B2F8A0
:1021D000922449004FF000514FF08053FFF732BE78
:1021E000DFF848C170B51CEA111E1EBF1CEA1315AA
:1021F0009EEA0C0F95EA0C0F00F06F8081EA030451
:1022000023EA4C134EEAD47E21EA4C1141F48011AA
:1022100043F48013AE44A1FB024CA0FB0365AEF176
:102220007F7E361955EB0C05A1FB034C4CF10003E6
:10223000A0FB021C16EB0C06654153F1000309429A
:1022400018BF46F0010613F4007F0BD14FEA0331AB
:102250004FEA0530340341EA155140EA16506FF059
:1022600003020AE04FEAC3214FEAC520F40241EA23
:10227000555140EA56506FF0020202EB2E4201EB3C
:10228000025585EACE710AD05FEA440C18BF24F0EB
:10229000004450F1000041F1000120EAD47040F206
:1022A000FE7C624500D270BDA84214BF4FF080444E
:1022B0004FF04044002E08BF0024BEF1806FA8BF3D
:1022C000A1F1C041BDE8704080F282804FF0000073
:1022D00001F1C04101F0004170479EEA0C0F0CEA89
:1022E000131518BF95EA0C0F06D04FF0000081EAD5
:1022F000030E0EF0004170BD00F01CF88900013E95
:1023000000F007B800F009B84FEA430C5FEA5C5CE4
:1023100008D081EA030100F05BB84FEA410C5FEAA4
:102320005C5CF6D14FF00000014970470000FF07E8
:102330000000F87F0EF1020E2EF0030E5EF8046B23
:10234000364205D4012A43EB030515F5001F12D8C8
:10235000012841EB010C1CF5001F0CD80ED14FEAEF
:10236000D17C15F5001F0CEB4C0C0CF1020C08BFD6
:102370004CEBD37C04E04FF0080C01E04FEAD37C37
:102380000CEB4C0526FA05F606F00706B6F1040C30
:1023900006D20EEB860CBDE870404CF0010C604795
:1023A000DFE80CF0090B02024FF000414FF0000093
:1023B000A1F5002170BD19461046012851EB01041A
:1023C00018BFD4F5001484BF002001F0004170BD97
:1023D0000808A0F500114FEA3101704753EA010CDB
:1023E00017D41CF5801F58BFBCF5801F00F1068074
:1023F0008B4218BF704708BF8242704707D713F55A
:10240000801F58BF11F5801F19D48B4270479B4223
:1024100070471CF5801F08D5BCF5801FF7D5994281
:1024200018BF704708BF904270474FF4001C1CEB68
:10243000430F38BF1CEB410F01D2994270470FB4D4
:102440000CBC03BCFFF7C1BE91EA030F10B581F0CD
:1024500000413FF557AC83F0004300F009B800009D
:1024600010B591EA030F48BF83F000433FF54AAC33
:10247000841A71EB030C07D212198CF0004C43EB59
:102480000C03001B61EB0C01DFF8A4E14FEA1154CF
:10249000A4EB135C1EEA430F18BF9EEA445F00F0F2
:1024A000B08023EA6E03524221EA0451C3EB6E036B
:1024B00038BF5B1EDCF1200E25D322FA0CFE10EB98
:1024C0000E0043FA0CFE41EB0E01CCF1200E03FA94
:1024D0000EFE10EB0E0051F10001CCF1200E29D4BC
:1024E00012FA0EF201EB0451BDE8104058BF7047DC
:1024F000401C1CBFB2F1004F704700280CBF491CA4
:1025000020F00100704712EB020E43EB030218BFEC
:102510004FF0010E4EEA4202ACF1200CDCF11E0E2F
:1025200054D943FA0CFE10EB0E0051F1FF31CCF1FF
:102530001E0ED5D50EF1010E12FA0EFE404141EBF2
:10254000010101EB445C5FEA5C5C10D910EBDE70CA
:1025500001EB045138BFBEF1004FBDE8104018BF79
:10256000704700280CBF491C20F00100704730D292
:102570004FEAD42C11F5001124F400641BD0B1FAF9
:1025800081F20B3AA41AA41ED2F12003914030FA32
:1025900003F31943904001EBCC71002C01EB045183
:1025A000BDE81040A8BF704701F1C0414FF00000E6
:1025B00001F000417047B0FA80F310FA03F100D146
:1025C00010BDE41A173C4805C90AE4E701EB0451C1
:1025D00010BD491001EB0451BDE810404FEA300036
:1025E00002E04FF0000170474A0008BF0042F8D0F7
:1025F000B2F5001F28BF704701F000414FF0000006
:1026000070479EEA445F07D011EA5E0FBDE81040B4
:1026100004BF002100207047BDE8104070B5FFF7EF
:1026200089FE00BF40DFF63E83F000411046704750
:102630000000E0FF43004FEAD30C4FEA3C0C43405C
:102640001FBF40070CF1605113F0FE4F70471CF0A4
:10265000006F03D100200CF0004170470CF00043E4
:1026600043EA507010B540EACC0000F00EF800BF0D
:10267000000000924FEA0001FFF7AABE4FF00041B0
:102680004FF00000A1F5002170470EF1020E2EF070
:10269000030E5EF8044B244204D44FEA4102B2F127
:1026A0007F4F11D84FEA4003B3F17F4F0CD80ED1C2
:1026B0004FEAD07CB2F17F4F0CEB4C0C0CF1020CCA
:1026C00008BF4CEBD17C04E04FF0080C01E04FEA6E
:1026D000D17C0CEB4C0324FA03F404F00704B4F1AE
:1026E000040C06D20EEB840CBDE810404CF0010C3B
:1026F0006047DFE80CF0070802024FF00040A0F549
:10270000800010BD0846420018BFD2F1807288BF19
:1027100000F0004010BDFF2141EAD050C0057047D5
:102720004027000800000020380000006C0100086D
:1027300078270008380000202807000088010008DA
:1027400000A24A040000000000000000010203048F
:10275000060708090100000000000000000000005A
:102760000000000000000102030401020304060748
:0827700008090204060800003C
:0400000508000131BD
:00000001FF
